:020000040800F2
:10000000481400207D020008A317000851160008BC
:10001000A1170008B503000809210008000000002E
:100020000000000000000000000000009D0100082A
:10003000B703000800000000F9010008411B000898
:10004000970200089702000897020008970200082C
:10005000970200089702000897020008970200081C
:10006000970200089702000897020008970200080C
:1000700097020008970200089702000897020008FC
:1000800097020008970200089702000897020008EC
:1000900097020008970200089702000897020008DC
:1000A00097020008970200089702000897020008CC
:1000B00097020008970200089702000897020008BC
:1000C00097020008970200089702000897020008AC
:1000D000970200089702000897020008970200089C
:1000E000B903000897020008970200089702000869
:1000F000970200089702000897020008970200087C
:10010000970200089702000897020008970200086B
:1001100097020008970200081D1C000897020008BB
:10012000970200089702000897020008970200084B
:10013000970200089702000897020008970200083B
:10014000970200089702000897020008970200082B
:10015000970200089702000897020008970200081B
:10016000970200089702000897020008970200080B
:10017000970200089702000897020008000000009C
:100180009702000897020008DFF80CD000F000F991
:1001900000480047A1210008481400202C4B196892
:1001A000086800F05AB880F30988BFF36F8F4FF0EA
:1001B000000080F3118870470000000008480068C4
:1001C000006880F308884FF0000080F3148862B65E
:1001D00061B6BFF34F8FBFF36F8F00DF00BF00BF6B
:1001E00008ED00E0DFF80C00016841F470010160E7
:1001F000704700BF88ED00E0EFF30980BFF36F8F19
:10020000134B1A681EF0100F08BF20ED108A20E96A
:10021000F04F106009B44FF0500080F31188BFF325
:100220004F8FBFF36F8F02F04FFC4FF0000080F351
:10023000118809BC1968086800F014B81EF0100F86
:1002400008BF00F014B880F30988BFF36F8F7047C0
:1002500028000020EFF30580704730C8B0E8C04F99
:10026000FFF7A1BF30C8B0E8C04FFFF7E7BFB0EC61
:10027000088AB0EC08CAFFF7E6BF000006488047CE
:1002800006480047FEE7FEE7FEE7FEE7FEE7FEE77B
:10029000FEE7FEE7FEE7FEE7D91B0008890100083C
:1002A0002DE9F05F0546002092469B4688460646AB
:1002B000814640241BE0284641464746224600F03E
:1002C00056F853465A46C01A914110D31146184663
:1002D000224600F03DF82D1A67EB01084F462246F2
:1002E0000120002100F034F817EB00094E41201ED8
:1002F000A4F10104DFDC484631462A46434600F0BB
:1003000000B830BCBDE8C09F40EA01039B0703D0A2
:1003100009E008C9121F08C0042AFAD203E011F844
:10032000013B00F8013B521EF9D27047D2B201E006
:1003300000F8012B491EFBD270470022F6E710B5EA
:1003400013460A4604461946FFF7F0FF204610BD43
:10035000202A04DB203A00FA02F100207047914085
:10036000C2F1200320FA03F3194390407047202A7A
:1003700004DB203A21FA02F00021704721FA02F34F
:10038000D040C2F120029140084319467047000056
:10039000064C074D06E0E06840F0010394E80700D2
:1003A00098471034AC42F6D3FFF7F2FED02F000886
:1003B000F02F0008FEE770474FF4005000F01EB821
:1003C0007047000070B5044600F01AF90546601C3D
:1003D00002D004484068044400F012F9401BA042D7
:1003E000FAD370BD18000020B0F5005F02D10249B9
:1003F000012008707047000004000020044910B577
:100400000A68024202D00860FFF7EEFF10BD00004C
:10041000140401402DE9F84FDFF898B100234FF0A4
:10042000010C4FF0030A4FF00F090BF1040EB9E075
:100430000CFA03F4224070D04D68022D01D0122D29
:100440000ED1DD0800EB8508D8F820505E07F70EC6
:1004500009FA07F6B5430E69BE402E43C8F820607E
:1004600007685E0091F804800AFA06F508F00308B0
:10047000AF4308FA06F848EA0708C0F800804F685A
:10048000012F05D0022F03D0112F01D0122F13D12D
:10049000D0F80880CF6828EA0508B74047EA08077F
:1004A0008760D0F804800F7928EA0408C7F30017A2
:1004B0009F4047EA08074760D1F804806FEA0807C1
:1004C000BF0706D1C76AA743C8F3C0049C403C439A
:1004D000C462C468AC438D68B5402543C5604C68B0
:1004E000E4005ED5344C256E45F001052566246E8A
:1004F00023F0030504F001040094304C2E19B46875
:100500009D072F0F09FA07F5AC43B0F1904F05D0C6
:100510002B4DA84204D101251CE042E0002519E042
:10052000284DA84201D1022514E0274DA84201D14F
:1005300003250FE0254DA84201D104250AE0244DF2
:10054000A84201D1052505E0224DA84201D106258A
:1005500000E00725BD402543B560DBF800405D465F
:100560004E689443F60300D514432C60DEF8004037
:1005700075464E689443B60300D514432C600D4D68
:1005800008352C684E689443F60200D514432C605D
:10059000084D0C352C684E689443B60200D51443C0
:1005A0002C605B1C0A6832FA03F57FF441AF00F05F
:1005B00013B8000000040140001002400000014098
:1005C0000004004800080048000C004800100048E3
:1005D000001400480018004818BCBDE8E08F00690E
:1005E000084000D00120704742690A4201D0816270
:1005F0007047816170470AB18161704781627047BD
:100600000148806870470000180000200248816897
:10061000426811448160704718000020094810B5F5
:100620000168002441F480710160032000F08EF81D
:10063000002000F009F808B1012401E000F03EF8C4
:10064000204610BD0020024000B5014687B00022C0
:10065000362000F05BF8362000F04AF81348816D30
:1006600041F010018165806D05A900F01000069031
:10067000684600F021FB00F03FFB0D490D4AB0FB3E
:10068000F1F10D48491E0260416040F2E73200215D
:10069000C0E90321816000F018FE10B1012007B00D
:1006A00000BD054800F02EFEF9E7000000100240F2
:1006B00040420F0000100040E00200200B4882B0D2
:1006C000016E41F001010166016E01F0010100912E
:1006D000816D41F080518165806D002200F0805075
:1006E00000900F21901E02B000F010B800100240E0
:1006F000002809DB00F01F02012191404009800021
:1007000000F1E020C0F8001170470000F0B40E4B7B
:100710001B680C46C3F30223C3F10705042D00D95F
:100720000425191D072901D2002300E0DB1E012644
:1007300006FA05F1491E214099409E40761E16405A
:100740003143F0BC01F0EABC0CED00E0064900F0DA
:10075000070208684FF6FF03184040EA0220034AE8
:1007600010430860704700000CED00E00000FA053F
:100770001649B0F5007F0868C0F3412009D002286F
:1007800005D0086820F4C06040F480600860002054
:1007900070470128FBD0086820F4C06040F4007066
:1007A00008600B483222006850430A4AB0FBF2F05E
:1007B000401C00E0401E4A69520501D50028F9D1CD
:1007C00048694005E3D503207047000000700040F1
:1007D0002400002040420F000248006800F4C0607E
:1007E00070470000007000402DE9F84F04460027D4
:1007F0000088E54D3E46010504F1200B1DD5606ED5
:1008000078B1B0F5800F11D0B0F5000F04D0B0F57D
:10081000400F22D001270FE0E86840F48030E86004
:100820001BE00021201D00F0BDFF03E00021584621
:1008300001F04EF8070010D03E462088C00426D5AF
:10084000A06EC0B1B0F1807F1AD0B0F1007F0DD0A2
:10085000B0F1407F19D0012718E0D5F88800616E0B
:1008600020F440000843C5F88800E6E7E86840F453
:100870008030E86009E00021201D00F093FF03E0D4
:100880000021584601F024F80746F7B13E4620689B
:1008900080033AD5A86D4FF00008C00009D4A86DB8
:1008A00040F08050A865A86D4FF0010800F080501E
:1008B0000090DFF8D8A2DAF8001041F48071CAF88D
:1008C0000010FFF79DFE814610E0D5F88800A16E6C
:1008D00020F040700843C5F88800D8E7FFF790FE85
:1008E000A0EB0900022801D9032705E0DAF800008F
:1008F000C005F3D5002F7CD04FEA0706B8F1000FF2
:1009000003D0A86D20F08050A8652078C00707D0DC
:10091000D5F88800A16B20F003000843C5F88800D3
:100920002078800707D5D5F88800E16B20F00C000F
:100930000843C5F888002078400707D5D5F8880017
:10094000216C20F030000843C5F8880020780007AB
:1009500007D5D5F88800616C20F0C0000843C5F8C1
:1009600088002078C00607D5D5F88800A16C20F44F
:1009700040700843C5F888002078800607D5D5F870
:100980008800E16C20F440600843C5F888002088A6
:10099000800507D5D5F88800E16D20F44020084394
:1009A000C5F888002088400507D5D5F88800216E55
:1009B00020F440100843C5F888002078400607D589
:1009C000D5F88800216D20F440500843C5F8880010
:1009D0002078000607D5D5F88800616D20F44040E6
:1009E0000843C5F888002088C00509D5D5F88800D7
:1009F00000E01CE0A16D20F440300843C5F88800F9
:100A000020884FF0006780044FF080684FD5D5F8FC
:100A10008800E16E20F040600843C5F88800E06E71
:100A2000B8423CD1E86840F48010E8603FE0D5F877
:100A3000900010F4407015D0D4F88410814211D089
:100A4000D5F89000D5F8901020F4407041F4803132
:100A5000C5F89010D5F8901021F48031C5F89010A9
:100A6000C5F89000C00710D0FFF7CAFD074641F255
:100A7000883906E0FFF7C4FDC11B494501D90326AB
:100A80003CE7D5F890008007F4D5D5F89000D4F86D
:100A9000841020F440700843C5F890002EE74045CC
:100AA00005D10121201D00F07DFE00B10646206821
:100AB000000317D5D5F88800216F20F04060084367
:100AC000C5F88800206FB84204D1E86840F480106F
:100AD000E86007E0404505D10121201D00F062FEDD
:100AE00000B106462068400317D5D5F88800616F2D
:100AF00020F040600843C5F88800606FB84204D118
:100B0000E86840F48010E86007E0404505D1012125
:100B1000201D00F047FE00B10646208840041AD58B
:100B2000D5F88800A16F20F040500843C5F8880030
:100B3000A06FB0F1805F03D0B0F1005F05D00AE094
:100B40000221201D00F02EFE03E00221584600F095
:100B5000BFFE00B106462088000407D5D5F88800FE
:100B6000E16F20F080400843C5F888002068C0038A
:100B700007D555F8880FD4F8801020F000400843BE
:100B80002860304600F004B80010024000700040B9
:100B900018BCBDE8E08F00002DE9F0470F460500C6
:100BA00058D0404E306800F00700B84209D2306893
:100BB00020F0070038433060306800F00700B8428A
:100BC00048D12878384CC0072CD06868032811D049
:100BD000022812D0216898B1490500293ADAA168A3
:100BE00021F003010143A160FFF70AFD804641F2B5
:100BF000883910E021688901EFE721688903ECE773
:100C00008907EAE7FFF7FCFCA0EB0801494502D998
:100C10000320BDE8F087A068696800F00C00B0EB25
:100C2000810FEFD12878800705D5A068A96820F04A
:100C3000F0000843A060306800F00700B8420BD90C
:100C4000306820F0070038433060306800F007005B
:100C5000B84201D00120DCE72878400705D5A0681C
:100C6000E96820F4E0600843A0602878000706D512
:100C7000A068296920F4605040EAC100A06000F03B
:100C80005FF8A168094AC1F30311515C01F01F012B
:100C9000C8400749086007480068BDE8F047FFF70B
:100CA000D3BC00000020024000100240542F000876
:100CB00024000020180000200F2202600C4A9368D4
:100CC00003F003034360936803F0F00383609368C9
:100CD00003F4E063C36092684FF4E06303EAD20276
:100CE00002610448006800F00700086070470000D7
:100CF000001002400020024005480649006889684B
:100D0000054AC1F30221515C01F01F01C840704740
:100D10002400002000100240942F000805480649D6
:100D200000688968054AC1F3C221515C01F01F01C6
:100D3000C84070472400002000100240942F000893
:100D400070B52549002318468A68CC6812F00C0259
:100D500004F00306214C4FEA640509D00C2A05D0A3
:100D6000042A32D0082A00D1284670BD012E10D1A5
:100D70000B681B0704D4D1F89430C3F3032302E0BB
:100D80000B68C3F30313164E56F82330DAB10C2A5E
:100D9000EBD1C86800F00300022818D0032818D04F
:100DA0001846CA68CB68C2F30212C3F30623434352
:100DB000521CB3FBF2F2C868C0F34160401C400013
:100DC000B2FBF0F070BD184670BD204670BD2046E5
:100DD000E7E72846E5E70000001002400024F400A1
:100DE000642F00082DE9F84304006ED0FD4DA8687B
:100DF00000F00C06E86800F003072078C00663D511
:100E000076B10C2E01D1012F0AD0A06900282868E4
:100E100078D040F001002860FFF7F2FB80465BE0ED
:100E20002868800702D5A0690028DED0216A2868DA
:100E3000000703D5286800F0F00004E0D5F894001E
:100E4000F02202EA1010814216D9084600F0C4FDD3
:100E500000283AD1286840F0080028602868216AF4
:100E600020F0F000084328606868E16920F47F40C2
:100E700040EA0120686015E0286840F0080028601A
:100E80002868216A20F0F000084328606868E1695A
:100E900020F47F4040EA01206860206A00F09CFD59
:100EA0000028D6D1FFF74CFFA968CF4AC1F3031140
:100EB000515C01F01F01C840CC490860CC48006873
:100EC000FFF7C2FB00287DD12DE0C9E0FFF798FBBA
:100ED000A0EB0800022876D828688007F6D5286895
:100EE00040F0080028602868216A20F0F0000843DC
:100EF00028606868E16920F47F4040EA012068606A
:100F000011E0FFE720F001002860FFF779FB804641
:100F100006E000BFFFF774FBA0EB08000228DAD858
:100F200028688007F6D42078C00740D0082E18D053
:100F30000C2E01D1032F14D06068B0F5803F17D07C
:100F4000B0F5A02F286817D020F4803028602868DA
:100F500020F4802028606068E0B1FFF751FB8046F4
:100F600014E02868800322D56068002878D01EE04D
:100F7000286840F48030EDE740F480202860F7E7EF
:100F8000FFF73EFBA0EB08006428A4D82868800384
:100F9000F6D50CE0FFF734FB804605E0FFF730FBA9
:100FA000A0EB0800642896D828688003F6D420783F
:100FB00080073BD5042E11D00C2E01D1022F0DD06D
:100FC000E06801E03EE19FE0002828681ED040F480
:100FD00080702860FFF714FB07460CE02868400586
:100FE0000CD5E0680028C1D008E000BFFFF708FB7F
:100FF000C01B022893D828684005F7D56868217C73
:1010000020F0F85040EA016068600FE020F4807042
:101010002860FFF7F5FA074605E000BFFFF7F0FA92
:10102000C01B022870D828684005F7D42078000734
:1010300029D560690028D5F8940012D040F001004D
:10104000C5F89400FFF7DCFA074604E0FFF7D8FA8A
:10105000C01B022858D8D5F894008007F6D512E0B6
:1010600029E120F00100C5F89400FFF7C9FA07460E
:1010700005E000BFFFF7C4FAC01B022844D8D5F82A
:1010800094008007F6D42078400768D5A86D002723
:10109000C00008D4A86D40F08050A865A86D012755
:1010A00000F08050009053480168C90512D40168CF
:1010B000814641F480710160FFF7A2FA804605E0A5
:1010C000FFF79EFAA0EB080002281DD8D9F800000F
:1010D000C005F5D5A068012817D00528D5F89000DF
:1010E00018D020F00100C5F89000D5F8900020F04D
:1010F000040000BFC5F89000A06841F28839D0B163
:10110000FFF77EFA804611E06BE0D5F8900040F0E2
:101110000100EFE740F00400C5F89000F5E700BFDC
:10112000FFF76EFAA0EB080149455AD8D5F89000B0
:101130008007F5D50EE0FFF763FA804606E000BFB2
:10114000FFF75EFAA0EB080149457AD8D5F8900080
:101150008007F5D41FB1A86D20F08050A865A06A63
:10116000F0B30C2E75D00228286820F0807028601B
:1011700004D0286810F0205F51D054E0FFF740FA07
:10118000064604E0FFF73CFA801B022859D828687D
:101190008001F7D4D4E90B016FF00F0202EB0111CB
:1011A0000843A18F5204490802EB4151626B41EAA6
:1011B0000221084394F840104FF07E42490802EBA8
:1011C00041610843A16B090940EA4140E9680A4AC4
:1011D00011400843E860286840F0807028600DE006
:1011E0006BE02EE000100240542F00082400002085
:1011F00018000020007000408C809DF9E86840F0E5
:101200008070E860FFF7FCF9044604E0FFF7F8F9A6
:10121000001B022815D828688001F7D54DE0E86842
:1012200020F00300E860E86825490840E860FFF71F
:10123000E7F9044609E000BFFFF7E2F9001B0228C6
:1012400003D90320BDE8F88303E028688001F3D4C4
:1012500033E00128F6D0E868E26A00F00301914229
:1012600029D1216B00F0700209011039914222D17D
:10127000626B00F4FE41B1EB022F1CD1A26B00F4B3
:101280000031072A01D0012200E00022914212D150
:10129000A18F00F4C00249084905A1F5001191424F
:1012A00009D194F8401000F0C06049084906A1F146
:1012B0000071814201D00120C4E70020C2E7000094
:1012C000FFFFEEFE70477047704710B5040003D073
:1012D00094F83D0010B107E0012010BD002084F813
:1012E0003C00204600F00CF8022084F83D00211D4F
:1012F000206800F099FC012084F83D00002010BD1A
:10130000704700000168CA6842F00102CA600168C3
:101310008868064A1040062806D0B0F5803F03D002
:10132000086840F0010008600020704707000100D5
:10133000704770B50446006801694FF00005C94365
:10134000890715D4C168C943890711D4E91E016111
:1013500001202077206880698007204602D0FFF7AF
:10136000E7FF04E000F0A7F8204600F0A5F8257795
:1013700020680169C943490717D4C168C9434907AF
:1013800013D46FF004010161022020772068806986
:1013900010F4407F204602D0FFF7CAFF04E000F0BF
:1013A0008AF8204600F088F8257720680169C9434B
:1013B000090716D4C168C943090712D46FF00801A0
:1013C0000161042020772068C0698007204602D090
:1013D000FFF7AEFF04E000F06EF8204600F06CF876
:1013E000257720680169C943C90617D4C168C94374
:1013F000C90613D46FF0100101610820207720681E
:10140000C06910F4407F204602D0FFF791FF04E04E
:1014100000F051F8204600F04FF825772068016968
:10142000C943C90708D1C168C943C90704D1891E86
:101430000161204600F042F820680169C9430906AD
:1014400009D4C168C943090605D46FF08001016160
:101450002046FFF738FF20680169C943C90509D450
:10146000C168C943090605D46FF480710161204643
:10147000FFF728FF20680169C943490609D4C168FC
:10148000C943490605D46FF040010161204600F0D0
:101490001FF820680169C94389060BD4C168C94394
:1014A000890607D46FF0200101612046BDE8704035
:1014B000FFF70ABF70BD704770470000006803491E
:1014C000884201D1FFF7A2B8704700000010004029
:1014D000704710B5040002D0606F10B107E0012022
:1014E00010BD002084F87000204600F025F824206C
:1014F00060672068016821F001010160204600F06A
:1015000083FC0128ECD0606A10B1204600F0ECFBAF
:101510002068416821F4904141602068816821F091
:101520002A0181602068016841F0010101602046C4
:10153000BDE8104000F03CBC10B586B00446142154
:101540006846FEF7FAFE1349206888421FD1124808
:10155000816D41F400318165816D01F400310591A7
:10156000C16C41F00101C164C06C694600F001002A
:1015700005900C2000900220019000200290032092
:101580000390072004904FF09040FEF743FF06B011
:1015900010BD000000440040001002402DE9F84357
:1015A0000446406F1F4616460D4620284ED1CDB149
:1015B000C6B194F87000012848D0012084F870006A
:1015C0004FF00008C4F87C8021206067FFF718F80E
:1015D000A4F850608146A4F85260A068B0F5805F1E
:1015E00003D004E00120BDE8F883206910B12E4645
:1015F000002510E000260EE08021204600F054FD7A
:10160000B8B9C6B116F8010B21680885B4F85200C4
:10161000401EA4F85200B4F852004B464FF00002AE
:1016200000970028E8D14FF04001204600F03CFD33
:1016300030B10320D7E735F8020BC0F30800E3E729
:101640002020606784F870800020CCE70220CAE781
:10165000FEE7000010B59CB01C2216496846FEF754
:1016600053FE0021684600F0BAFD134C11491C22BC
:1016700060601C3107A8FEF747FE002107A800F0B4
:10168000AEFD0C49A0601C2238310EA8FEF73CFECE
:1016900000210EA800F0A3FD0649E0601C22543191
:1016A00015A8FEF731FE002115A800F098FD206175
:1016B0001CB010BDE42E00080400002030B587B037
:1016C00014216846FEF739FE2348C16C41F004013D
:1016D000C164C16C01F004010591C16C41F080014D
:1016E000C164C16C01F080010591C16C41F0010140
:1016F000C164C16C01F001010591C16C41F00201AE
:10170000C164C06C4FF0904500F0020005900022CB
:1017100020212846FEF76FFF4FF4005000900F483D
:101720000124CDE9010469460D48FEF773FE20202F
:1017300000900021CDE90141039169462846FEF75A
:1017400069FE002206212820FEF7E0FF2820FEF790
:10175000CFFF07B030BD0000001002400000311084
:10176000000800480D4810B50B4901604FF4E13105
:101770004160002181600C22C160C0E904128161D6
:10178000C16101624162FFF7A4FE002803D0BDE8F9
:101790001040FEF715BE10BD00440040200300209D
:1017A000FEE770472DE9F041444C05468846E06865
:1017B0000026810728680DD0E16801F0030181420D
:1017C00016D1A8B1E0686968C0F30210401C8842D5
:1017D0000ED120E0012804D0022805D0032807D12B
:1017E00008E02168890701E021684905002907DB35
:1017F00001265FE02168890302D421684903F5E7E7
:10180000E1686A686FF00F0321F0730103EB0212C5
:1018100011430143E160206820F080602060FEF702
:10182000EFFE074605E000BFFEF7EAFEC01B0228F8
:1018300037D820680001F7D4B8F1000F18D0B8F1FC
:10184000010F1ED0287D4FF07E41400801EB406023
:10185000A96840EA01202169194A11400843206122
:10186000206840F080602060FEF7CAFE07461AE05C
:10187000A868E9680002090940EA41402169114A63
:10188000EBE7288A1049400801EB4050A96840EA7C
:10189000012021690D4AE0E7FEF7B2FEC01B0228D5
:1018A00001D9032606E020680001F5D52069A96961
:1018B000084320613046BDE8F0810000001002407E
:1018C000FF80FFF9FF80FDFF0000E0FFFF809FFF2A
:1018D0002DE9F0413D4C06468846E0680025810729
:1018E00030680DD0E16801F00301814216D1A8B142
:1018F000E0687168C0F30210401C88420ED120E0FD
:10190000012804D0022805D0032807D108E0216867
:10191000890701E021684905002907DB012551E01D
:101920002168890302D421684903F5E7E1687268F8
:101930006FF00F0321F0730103EB02121143014317
:10194000E160206820F080502060FEF759FE0746D5
:1019500005E000BFFEF754FEC01B022829D820680E
:101960008000F7D4B8F1000F15D0307C4FF07E41E5
:10197000400801EB4060B16840EA01206169144A07
:10198000114008436061206840F080502060FEF7FD
:1019900037FE07460FE0B068F1680002090940EA27
:1019A000414061690B4AEBE7FEF72AFEC01B0228A3
:1019B00001D9032506E020688000F5D560697169CA
:1019C000084360612846BDE8F08100000010024035
:1019D000FF80FFF9FF80FDFFF8B51C4D064600248F
:1019E000A86DC00002D5FEF7F7FE0DE0A86D40F02F
:1019F0008050A865A86D00F080500090FEF7ECFEC6
:101A0000A96D21F08051A965B0F5007F04D0802E2A
:101A100007D94FF003040AE0802E08D9A02E01D880
:101A200004E001D1022402E0702E00D10124084814
:101A3000016821F0070121430160006800F0070000
:101A4000A04201D00120F8BD0020F8BD00100240E6
:101A5000002002404FF47A7403A000F057FB2046A8
:101A600000F0B1FBF8E700007461736B312069731B
:101A70002072756E6E696E67200D0A000B4D0C4C5E
:101A80004FF4487628780028E06808D000F0D2FBB0
:101A9000606800F0CFFB304600F095FBF2E700F005
:101AA000E3FB606800F0E0FBF5E7000000000020C9
:101AB000040000204FF090444FF47A752021204616
:101AC000FEF792FD284600F07EFBF7E7194F1A4C0F
:101AD0001A4E4FF000084FF400554FF001094FF433
:101AE000C87A3878012821D129462046FEF777FDAB
:101AF00030B129462046FEF772FD01280BD015E0D3
:101B00001E20FEF75FFC29462046FEF768FD68B9F7
:101B100086F800800AE01E20FEF754FC2946204685
:101B2000FEF75DFD012801D186F80090504600F0D7
:101B30004AFBD6E70400002000080048000000200F
:101B400010B5502080F31188BFF34F8FBFF36F8F14
:101B500001F0BEF818B104494FF080500860002031
:101B600080F3118810BD000004ED00E030B5B9B07D
:101B7000442122A8FEF7E1FB142133A8FEF7DDFB88
:101B800088216846FEF7D9FB0120022401042C9429
:101B90000325CDE92201CDE92D5014202F900720F7
:101BA000CDE9300422A83294FFF71CF90F20CDE9CB
:101BB0003305002535953695042133A83795FEF772
:101BC000EBFF0F9568460094FEF70EFE2002FEF72D
:101BD000CFFD39B030BD00000D48016841F47001FF
:101BE00001600C48016841F0010101600021816041
:101BF0000268094B1A4002608214C260026822F433
:101C00008022026081610249C00380390860704708
:101C100088ED00E000100240FFFFF6EA0148FFF700
:101C200088BB0000E00200202DE9F0470268264B47
:101C3000264D274E274F284C4FF0804A984209D016
:101C4000504507D0A84205D0B04203D0B84201D0D9
:101C5000A04204D122F0700C4A6842EA0C02DFF87C
:101C60007CC0DFF87C80DFF87C9098420FD0504534
:101C70000DD0A8420BD0B04209D0B84207D0A04244
:101C800005D0604503D0404501D0484503D122F43A
:101C90004075CA682A434D6922F080022A430260D7
:101CA0008A68C2620A688262984207D0A04205D060
:101CB000604503D0404501D0484501D10969016321
:101CC00001214161BDE8F087002C01400004004083
:101CD00000080040000C004000340140004001407A
:101CE000004401400048014090F82410C90706D084
:101CF00001684A68836A22F400321A434A6090F805
:101D00002410890706D501684A68C36A22F4803224
:101D10001A434A6090F82410490706D501684A68BA
:101D2000036B22F480221A434A6090F824100907BA
:101D300006D501684A68436B22F400421A434A60A0
:101D400090F82410C90606D501688A68836B22F4CE
:101D500080521A438A6090F82410890606D50168DB
:101D60008A68C36B22F400521A438A6090F82410E8
:101D7000490611D501684A68036C22F480121A439F
:101D80004A60016CB1F5801F06D101684A68436C56
:101D900022F4C0021A434A6090F82410090606D5BE
:101DA00001684A68806C22F4002202434A6070474E
:101DB000F8B500260446C667FEF722FC05462068F3
:101DC00000686FF07E47000708D52B4600224FF4CD
:101DD00000112046009700F067F960B9206800689C
:101DE00040070AD52B4600224FF480012046009779
:101DF00000F05AF908B10320F8BD20206067A06701
:101E000084F870600020F8BD2DE9F04105460168B6
:101E100080682B69EC6918436B69002723431843DA
:101E2000954A0B68954C234003430B602868416832
:101E3000EB6821F44051194341602968A869914237
:101E400001D02B6A18438B6823F4306303438B6003
:101E50008B4B29688B4899420DD1D0F8880010F03F
:101E6000030006D0012868D0022864D0032851D18D
:101E700065E001244FE0844B99420BD1D0F88800F3
:101E800010F00C0055D0042857D0082853D00C2847
:101E900040D154E07D4B99420BD1D0F8880010F02E
:101EA000300046D0102848D0202844D0302831D1E6
:101EB00045E0774B99420BD1D0F8880010F0C00074
:101EC00037D0402839D0802835D0C02822D136E0FC
:101ED000704B99420ED1D0F8880010F4407028D091
:101EE000B0F5807F29D0B0F5007F24D0B0F5407FD9
:101EF00010D124E091420DD1D0F8880010F4406058
:101F000017D0B0F5806F18D0B0F5006F13D0B0F5D2
:101F1000406F14D01024604B00264FF400409142D3
:101F200045D174B1022C0FD0042C0FD0082C18D13D
:101F30000FE00024EFE70224EDE70424EBE7082498
:101F4000E9E7FEF7D9FE03E0184602E0FEF7F8FEE7
:101F5000A8B36A6802EB4201814202D8B0EB023FAB
:101F600001D9012775E0DFF834815CB1022C0CD077
:101F7000042C13D0082CF4D150082105401846F148
:101F8000000105E0FEF7B8FE0AE050084449F5E715
:101F90000023FEF785F9A0F5407156E0FEF7D0FE6C
:101FA0006A68010E0302500818187141F0E7E969E8
:101FB0004FF6EF7881422FD1092CD2D200E048E0D1
:101FC000DFE804F006092005230505052600C8E71B
:101FD000FEF792FE01E0FEF7A1FE4100D5F80400F5
:101FE00001EB5001B1FBF0F080B2A0F110014145CE
:101FF000B7D84FF6F0710140C0F3420001432868A2
:10200000C16026E027496868EAE7FEF799FEE4E741
:102010004FF480316868E3E7092CA2D2DFE804F0CE
:1020200006091E052205050525009AE7FEF764FE50
:1020300001E0FEF773FE0146686801EB500100BF46
:10204000B1FBF0F080B2A0F11001414589D82968B8
:10205000C8602E6638466E66BDE8F081686803EB9E
:102060005001EDE7FEF76CFEE5E7696800EB510013
:10207000B0FBF1F0E6E7000000800040F369FFEFFD
:102080000038014000100240004400400048004079
:10209000004C0040005000400024F400FFFC0F0002
:1020A000000024F40048E8012DE9F0419846174665
:1020B0000E460446069D08E0681C06D0FEF7A0FA0E
:1020C000A0EB0800A8420BD855B12068C06936EAD9
:1020D000000017D00020B842EED00020BDE8F0810B
:1020E0002068016821F4D07101602068816821F0C6
:1020F0000101816020206067A067002084F87000E3
:102100000320EBE70120E6E7FEE70000014A024971
:1021100000F023B87D210008880000200907090E7F
:10212000002804DB00F1E02080F80014704700F084
:102130000F0000F1E02080F8141D704702E008C88D
:10214000121F08C1002AFAD170477047002001E031
:1021500001C1121F002AFBD170472DE9F04116463C
:102160000F460446002503E03946B047641C6D1C49
:1021700020780028F8D12846BDE8F08113B54FF645
:10218000FF73012269460248FFF708FA00981CBD58
:1021900020030020EFF30580002800D001207047C5
:1021A000FEF73CFAFFF7E2FCFFF788FAFFF7DAFAEE
:1021B000FFF750FA00F00EF8FEE7014600208429F0
:1021C00000D0C81C704710B500B9012000F07CFB9E
:1021D000002010BD10B500F0DBFB002010BD7FB566
:1021E0000D4604464169B0F9080081B1A16971B199
:1021F000FFF7E3FFD4E905128DE80700D4E90010EA
:102200002B46226900F038FD039004B070BDFFF743
:10221000D4FF03A9CDE90001208A2B4682B2D4E97C
:10222000001000F0F9FC012801D00020EDE7039830
:10223000EBE7000010B50446FFF7ACFF002820468E
:102240000BD000F00BFE012809D1064900070860F9
:10225000BFF34F8FBFF36F8F01E000F05BFB0020F7
:1022600010BD000004ED00E010B500F0C7FB002039
:1022700010BD00002DE9F041184C0F460546666977
:102280002068001D00F032FA38B9206890F82C1050
:1022900001208840A1698143A161681C07D137B141
:1022A0002168BDE8F0410E48091D00F063BA2068BE
:1022B0003544B5424560216805D2A068BDE8F041CB
:1022C000091D00F03FBA6068091D00F03BFA206B61
:1022D000854200D22563BDE8F0810000280000207F
:1022E0007C0400202DE9F041054600F04FFA2E4C09
:1022F0002069401C206120682C4F10B1E06940B378
:102300002DE025602069012829D1002606EB8600F2
:1023100007EB800000F008FA761C072EF6D323485E
:102320008C3000F001FA2148A03000F0FDF91F4880
:10233000B43000F0F9F91D48C83000F0F5F91B4839
:10234000DC3000F0F1F919488C3060601430A06086
:1023500005E02068E96AC06A884200D82560E06A22
:10236000401CE062E96A0120A26988401043A06134
:1023700001EB810007EB8000291D00F0FBF900F064
:1023800025FAE06900280CD02068E96AC06A884212
:1023900007D207494FF080500860BFF34F8FBFF35B
:1023A0006F8FBDE8F081000028000020A00300200E
:1023B00004ED00E010B5044690F8510058B1012832
:1023C0000CD002280FD0502080F31188BFF34F8F1C
:1023D000BFF36F8FFEE7206B00F00CFA2046BDE8DC
:1023E000104000F007BA10BD0F4840F6B831420760
:1023F00005D0C01D0C4A20F00700821A891A0B4A2A
:1024000000230144C2E900030839103A21F0070112
:1024100011604B600B600B1AC0E9001393604FF022
:1024200000405360D060704790040020740000208A
:10243000144E154CA6F1C8074FF08058DFF84C90A9
:1024400012E000BF00F0A2F9F068C568281D00F096
:102450004DF92069401E2061E068401EE06000F0F8
:10246000B5F92846FFF7A6FFE0680028EAD13868EA
:102470000128F9D9C9F80080BFF34F8FBFF36F8FE0
:10248000F2E70000680400202800002004ED00E0CE
:102490002DE9F0479A46DDE9098481466FF0030390
:1024A000206B03EB82021044089D20F007067007A2
:1024B00007D0502080F31188BFF34F8FBFF36F8F89
:1024C000FEE723180A5C83F834200A5C12B1401C32
:1024D0001028F6D3002784F84370072D00D3062573
:1024E000E562C4E91157201D00F029F904F1180034
:1024F00000F025F92461C5F107006462A061E7647A
:1025000084F8507052464946304600F0D9F82060B1
:10251000B8F1000F01D0C8F80040BDE8F087000016
:1025200030B5114900E011460A688242FBD34B687E
:102530005C18844203D140681844486008464368E8
:102540001C18944209D1084C103C2468A24209D0BE
:1025500052681A4442600A6812680260814200D0E0
:10256000086030BD0460F9E7740000200648416847
:10257000096829B14168C968C96849680163704739
:102580004FF0FF31FAE700002800002008484068BB
:10259000401C4FF0500080F3118804D0BFF34F8FE0
:1025A000BFF36F8FFEE7BFF34F8FBFF36F8FFEE771
:1025B0007C000020002150B10A4B42699A420FD1A1
:1025C000806AA3F1280290420AD040B108E050206E
:1025D00080F31188BFF34F8FBFF36F8FFEE70121A8
:1025E000084670477C0400202DE9F041054600278D
:1025F00000F062FA314E306808B9FFF7F5FEF06876
:1026000005424BD1C5B3083568070ED005F0070069
:10261000C0F108000544680707D0502080F31188F6
:10262000BFF34F8FBFF36F8FFEE72DB37068854206
:1026300034D82248103001460C6801E020460C4690
:102640006168A94202D221680029F7D131688C4221
:1026500024D007682168016060680837411B102991
:102660000FD96019420708D0502080F31188BFF3BA
:102670004F8FBFF36F8FFEE710E041606560FFF79B
:102680004FFF61687068401A7060B268904200D273
:10269000B060F06801430020C4E9000100F07CFB59
:1026A000780707D0502080F31188BFF34F8FBFF316
:1026B0006F8FFEE73846BDE8F0810000640000201F
:1026C00010B5031F4FF080741C601B1F21F0010127
:1026D0001960191F044B0B6014390A60091F6FF051
:1026E000020244380A6010BD8D250008D0E901328D
:1026F00001699A60D0E901235A604A68824201D197
:1027000082684A60002202610868401E086008680A
:1027100070470000034B036003F154000860802001
:10272000106070478C00002000F108014FF0FF326C
:10273000C0E90112C1600161002101607047002100
:102740000161704730B50B685A1C02D000F10802D5
:1027500002E0026904E02246546825689D42FAD9E5
:1027600053684B6099608A60516008610168491C38
:10277000016030BD42684A6093688B60936859601D
:10278000916008610168491C01607047502080F326
:102790001188BFF34F8FBFF36F8F0A494868401C01
:1027A000486001280CD10848006810F0FF0F07D0DE
:1027B000502080F31188BFF34F8FBFF36F8FFEE778
:1027C000704700007C00002004ED00E008494868E4
:1027D00028B1401E486001D180F311887047502015
:1027E00080F31188BFF34F8FBFF36F8FFEE70000B8
:1027F0007C00002070B5002827D0144DA0F10804FB
:102800006168E868014207D1502080F31188BFF366
:102810004F8FBFF36F8FFEE722683AB1502080F3ED
:102820001188BFF34F8FBFF36F8FFEE78143616065
:1028300000F042F960686968084468602046FFF764
:102840006FFEBDE8704000F0A7BA70BD64000020C4
:102850004FF0E02000210161816105494FF47A7257
:102860000968B1FBF2F1491E41610721016170471E
:102870002400002010B5FDF7EDFC114910280ED3FF
:1028800000F1E02090F8F0030A78904207D250203F
:1028900080F31188BFF34F8FBFF36F8FFEE70948B6
:1028A0000068896800F4E060884207D9502080F30E
:1028B0001188BFF34F8FBFF36F8FFEE710BD00008D
:1028C0007C0000200CED00E010B5020014D00F4891
:1028D000806B38B1502080F31188BFF34F8FBFF366
:1028E0006F8FFEE700F0E8F800211046FFF7C2FC0A
:1028F00000F052FA002807D105494FF080500860D7
:10290000BFF34F8FBFF36F8F10BD00002800002072
:1029100004ED00E070B504002BD01A4D2868844205
:102920002FD0FFF733FF2046FFF744FEE8B1201D0C
:10293000FFF7DCFEE06A0121AA6981401143A96129
:10294000114900EB800001EB8000211DFFF712FF11
:10295000E06A2968C96A884207D30C494FF0805061
:102960000860BFF34F8FBFF36F8FBDE87040FFF774
:102970002DBF502080F31188BFF34F8FBFF36F8FAF
:10298000FEE770BD28000020A003002004ED00E059
:1029900010B586B00024039405AA04A903A80494E2
:1029A000FFF7B8FEDDE903010094CDE90110002333
:1029B0000EA11048059A00F05FF90F4900284863FE
:1029C00011D0502080F31188BFF34F8FBFF36F8F6A
:1029D0004FF0FF3008630120C8614C6106B0BDE8CC
:1029E000104000F09FB806B010BD000049444C45AF
:1029F00000000000312400082800002070B50446C3
:102A0000FFF7C4FE294D04B92C68201DFFF76EFEA8
:102A100058B9E06A264A00EB800152F8211021B92A
:102A200001218140A8698843A861A06A18B104F116
:102A30001800FFF75BFE1E48211DDC30FFF79AFEF1
:102A400094F850000026012801D184F85060FFF767
:102A5000BDFEE86928B1FFF799FEFFF787FDFFF794
:102A6000B5FE2868844213D1E86990B1A86B38B1EB
:102A7000502080F31188BFF34F8FBFF36F8FFEE7B5
:102A80000C494FF080500860BFF34F8FBFF36F8F3A
:102A900070BD0748DC3000682969884201D12E608A
:102AA00070BDBDE8704000F00FB8000028000020A5
:102AB000A003002004ED00E00248816B491C816303
:102AC00070470000280000201448816B11B10121DB
:102AD00041627047002141628169B1FA81F1C1F11F
:102AE0001F0101EB81020E4951F822306BB101EB5D
:102AF000820101F108034A6852684A609A4201D192
:102B000052684A60D16801607047502080F3118894
:102B1000BFF34F8FBFF36F8FFEE700002800002048
:102B2000A00300201CB537480168374A914207D1FD
:102B3000502080F31188BFF34F8FBFF36F8FFEE7F4
:102B400000683149491E884207D1502080F311881E
:102B5000BFF34F8FBFF36F8FFEE72C4908780190CA
:102B6000FF20087008788DF800009DF800009DF89F
:102B7000002000F0F000904207D0502080F3118830
:102B8000BFF34F8FBFF36F8FFEE79DF80000204B20
:102B900000F0500018700720986005E09DF80020B4
:102BA00052008DF80020401E9DF800201206F5D43A
:102BB0009860032807D0502080F31188BFF34F8F0F
:102BC000BFF36F8FFEE74FF4407098600198087074
:102BD0000C482030016841F470010160016841F047
:102BE00070410160FFF734FE00205860FDF7FAFAEB
:102BF0000848016841F040410160FDF7DFFA00201C
:102C00001CBD000000ED00E071C20F4100E400E0D7
:102C10007C00002034EF00E02DE9FF5F8346DDE912
:102C20000E87994616468A469000FFF7DDFC0500A0
:102C30001CD05420FFF7D8FC040014D000202563DA
:102C400084F85100CDE90240CDE900874B46324679
:102C500051465846FFF71CFC2046FFF743FB012076
:102C600004B000F006B82846FFF7C4FD4FF0FF306F
:102C7000F6E730BCBDE8C09FF0B585B0DDE90B6478
:102C80000A9DA6B1DCB1542700972663022684F87A
:102C90005160002604AFCDE90246CDE90057FFF7A9
:102CA000F7FB2046FFF71EFB049805B0F0BD50204F
:102CB00080F31188BFF34F8FBFF36F8FFEE7502073
:102CC00080F31188BFF34F8FBFF36F8FFEE70000D3
:102CD0002DE9F0412E4C0027A06B40B1206A401C2A
:102CE0002062606A00B101273846BDE8F08166695C
:102CF000761C666113D16068006838B1502080F39B
:102D00001188BFF34F8FBFF36F8FFEE76068A16834
:102D10006160A060A06A401CA062FFF727FC206BE6
:102D2000DFF87080864209D36068006880B160680F
:102D3000C068C568686886420DD220632068C06A92
:102D400000EB800158F821000128CAD90127C8E703
:102D50004FF0FF30F1E7281DFFF7C8FCA86A18B153
:102D600005F11800FFF7C2FCE86A0121A269814061
:102D70001143A16100EB800108EB8100291DFFF7E1
:102D8000F9FCE86A2168C96A8842CDD30127CBE7FC
:102D900028000020A00300202DE9F0472C4D00243E
:102DA0002746A86B38B1FFF7F1FCA86B401EA8635B
:102DB000A86B40B146E0502080F31188BFF34F8FDD
:102DC000BFF36F8FFEE72969224E0120D1B3A6F130
:102DD000B40980463068E8B1F068C46804F11800AE
:102DE000FFF784FC201DFFF781FCE06AAA6908FA5E
:102DF00000F11143A96100EB800109EB8100211D65
:102E0000FFF7B8FCE06A2968C96A8842E2D3C5F8CE
:102E10002480DFE70CB1FFF7A9FB2C6A44B14646DA
:102E2000FFF756FF00B16E62641EF9D100202862E0
:102E3000686A38B10849012738070860BFF34F8F27
:102E4000BFF36F8FFFF7C2FC3846BDE8F087000084
:102E5000280000205404002004ED00E02DE9F0419A
:102E60000027040015D0FFF705FD5020EFF3118572
:102E700080F31188BFF34F8FBFF36F8F2046FFF7AA
:102E800099FB30B3154EB06B58B104F118011448DA
:102E90001DE0502080F31188BFF34F8FBFF36F8F79
:102EA000FEE7E06A3168C96A884200D30127201D25
:102EB000FFF71CFCE16A0120B26988401043B06151
:102EC00001EB81000649B43901EB8000211DFFF7B9
:102ED00051FC85F311883846BDE8F08128000020B8
:102EE000540400209C2F0008551A00080000000020
:102EF0000000000080000000000000000000000052
:102F0000A82F00087D1A0008FDFF00000000000047
:102F1000800000000000000000000000B42F000846
:102F2000B51A0008FDFF000000000000800000004E
:102F30000000000000000000C02F0008CD1A0008AB
:102F4000FDFF000000000000800000000000000005
:102F50000000000000000000000000000102030467
:102F600006070809A0860100400D0300801A06002C
:102F700000350C0040420F0080841E0000093D0017
:102F800000127A000024F40000366E010048E801C7
:102F9000006CDC0200000000010203047573617222
:102FA000745F5461736B31006B65795F5461736B4F
:102FB000320000006C65645F5461736B3300000085
:102FC000636F6E6669726D5461736B34000000004C
:102FD000F02F0008000000208C0000003C210008B9
:102FE0007C3000088C000020BC1300004C2100083D
:102FF00002000000000000000000000000000000CF
:1030000000000000000000001000000001000000AF
:103010000000000000093D0000000000000000006A
:1030200000000000000000000000000000000000A0
:103030000000000000000000000000000000000090
:103040000000000000000000000000000000000080
:103050000000000000000000000000000000000070
:103060000000000000000000000000000000000060
:0C307000AAAAAAAA0000000000000000AC
:040000050800018965
:00000001FF
